:100000000C9494000C94B1000C94B1000C94B100C9
:100010000C94B1000C94B1000C94B1000C94B1009C
:100020000C94B1000C94B1000C949E090C946B0AD2
:100030000C94B1000C94B1000C94B1000C94B1007C
:100040000C94B1000C94B1000C94B1000C94B1006C
:100050000C94B1000C94B1000C94B1000C94711785
:100060000C94B1000C9405170C94B1000C94B100E1
:100070000C94B1000C943C170C94B1000C94B1009A
:100080000C94B1000C94B1000C94B1000C94B1002C
:100090000C94B1000C94B1000C94B1000C94B1001C
:1000A0000C94B1000C94B1000C94B1001C034D00F1
:1000B0006F006A006F002000560032000000180335
:1000C00045006D00620020004D0069006300720071
:1000D0006F0000000403090409023E00020100C091
:1000E000320904000001020201000524001001048D
:1000F0002402060524060001070582030800FF0903
:10010000040100020A0000000705040210000507B0
:100110000583021000051201100102000008DD290C
:10012000018001000102DC0111241FBECFEFD5E0E8
:10013000DEBFCDBF11E0A0E0B1E0ECE5FFE202C020
:1001400005900D92AA32B107D9F714E0AAE2B1E006
:1001500001C01D92A037B107E1F70E9482170C94ED
:10016000AC170C94000019BC82E089BD09B400FEF4
:10017000FDCF8091D8008F7D8093D8008091E000E2
:1001800082608093E0008091E00081FDFCCF0895C3
:10019000DF92EF92FF920F931F93CF93DF938C0127
:1001A000EB010E94F108D82E81112EC0209721F07A
:1001B00028813981021B130BE12CF12C20C0809186
:1001C000E80085FD15C08091E8008B778093E800FA
:1001D000209749F0888199818E0D9F1D998388838E
:1001E00085E0D82E11C00E94F108882341F00BC091
:1001F0008091F100015011098FEFE81AF80A0115FA
:100200001105E9F601C0D82E8D2DDF91CF911F91F8
:100210000F91FF90EF90DF900895DF92EF92FF92A1
:100220000F931F93CF93DF938C01EB010E94F10892
:10023000D82E81112EC0209721F028813981021BF0
:10024000130BE12CF12C20C08091E80085FD15C036
:100250008091E8008E778093E800209749F08881AC
:1002600099818E0D9F1D9983888395E0D92E11C0A9
:100270000E94F108882341F00BC01092F100015058
:1002800011098FEFE81AF80A01151105E9F601C006
:10029000D82E8D2DDF91CF911F910F91FF90EF9070
:1002A000DF900895BF92CF92DF92EF92FF920F936B
:1002B0001F93CF93DF937C018B01EA010E94F10829
:1002C000B82E811133C0209731F028813981021B6B
:1002D000130BE20EF31EC12CD12C23C08091E80039
:1002E00085FD15C08091E8008E778093E800209707
:1002F00049F0888199818C0D9D1D9983888325E023
:10030000B22E14C00E94F108882359F00EC0F701E4
:1003100081917F018093F10001501109FFEFCF1A05
:10032000DF0A01151105D1F601C0B82E8B2DDF9122
:10033000CF911F910F91FF90EF90DF90CF90BF90E2
:100340000895BF92CF92DF92EF92FF920F931F9387
:10035000CF93DF936C018B017A010E94F108B82ED4
:1003600081113AC0E8012197CC0DDD1DE114F104A3
:1003700039F0F70120813181021B130BC21BD30B13
:10038000C12CD12C24C08091E80085FD17C080913C
:10039000E8008E778093E800E114F10451F0F70152
:1003A000808191818C0D9D1D9183808335E0B32EDA
:1003B00013C00E94F108882351F00DC088818093FA
:1003C000F100219701501109FFEFCF1ADF0A011543
:1003D0001105C9F601C0B82E8B2DDF91CF911F9169
:1003E0000F91FF90EF90DF90CF90BF900895BF9254
:1003F000CF92DF92EF92FF920F931F93CF93DF93F1
:100400007C018B01EA010E94F108B82E811133C0F2
:10041000209731F028813981021B130BE20EF31E65
:10042000C12CD12C23C08091E80085FD15C080919E
:10043000E8008B778093E800209749F088819981C4
:100440008C0D9D1D9983888345E0B42E14C00E94B5
:10045000F108882359F00EC08091F100F7018193D3
:100460007F0101501109FFEFCF1ADF0A01151105B5
:10047000D1F601C0B82E8B2DDF91CF911F910F9136
:10048000FF90EF90DF90CF90BF900895BF92CF92F2
:10049000DF92EF92FF920F931F93CF93DF936C0144
:1004A0008B017A010E94F108B82E81113AC0E8014F
:1004B0002197CC0DDD1DE114F10439F0F701208105
:1004C0003181021B130BC21BD30BC12CD12C24C0B6
:1004D0008091E80085FD17C08091E8008B778093BC
:1004E000E800E114F10451F0F701808191818C0D55
:1004F0009D1D9183808355E0B52E13C00E94F108A5
:10050000882351F00DC08091F1008883219701501C
:100510001109FFEFCF1ADF0A01151105C9F601C055
:10052000B82E8B2DDF91CF911F910F91FF90EF90FF
:10053000DF90CF90BF900895BF92CF92DF92EF925D
:10054000FF920F931F93CF93DF937C018B01EA01FE
:100550000E94F108B82E811135C0209731F0288112
:100560003981021B130BE20EF31EC12CD12C25C0C6
:100570008091E80085FD15C08091E8008E7780931A
:10058000E800209749F0888199818C0D9D1D998301
:10059000888365E0B62E16C00E94F108882369F0B2
:1005A00010C0F70184918093F100FFEFEF1AFF0A6A
:1005B000015011098FEFC81AD80A01151105C1F6AB
:1005C00001C0B82E8B2DDF91CF911F910F91FF901D
:1005D000EF90DF90CF90BF900895BF92CF92DF92BF
:1005E000EF92FF920F931F93CF93DF936C018B01D8
:1005F0007A010E94F108B82E81113BC0E8012197D1
:10060000CC0DDD1DE114F10439F0F70120813181B9
:10061000021B130BC21BD30BC12CD12C25C0809104
:10062000E80085FD17C08091E8008E778093E80090
:10063000E114F10451F0F701808191818C0D9D1D31
:100640009183808375E0B72E14C00E94F10888233F
:1006500059F00EC0FE0184918093F1002197015062
:100660001109FFEFCF1ADF0A01151105C1F601C00C
:10067000B82E8B2DDF91CF911F910F91FF90EF90AE
:10068000DF90CF90BF900895BF92CF92DF92EF920C
:10069000FF920F931F93CF93DF937C018B01EA01AD
:1006A0000E94F108B82E811136C0209731F02881C0
:1006B0003981021B130BE20EF31EC12CD12C26C074
:1006C0008091E80085FD15C08091E8008E778093C9
:1006D000E800209749F0888199818C0D9D1D9983B0
:1006E0008883E5E0BE2E17C00E94F108882371F0D0
:1006F00011C0C7010E9492178093F1008FEFE81A92
:10070000F80A015011098FEFC81AD80A011511050E
:10071000B9F601C0B82E8B2DDF91CF911F910F91AB
:10072000FF90EF90DF90CF90BF900895BF92CF924F
:10073000DF92EF92FF920F931F93CF93DF936C01A1
:100740008B017A010E94F108B82E81113CC0E801AA
:100750002197CC0DDD1DE114F10439F0F701208162
:100760003181021B130BC21BD30BC12CD12C26C011
:100770008091E80085FD17C08091E8008E77809316
:10078000E800E114F10451F0F701808191818C0DB2
:100790009D1D91838083F5E0BF2E15C00E94F10856
:1007A000882361F00FC0CE010E9492178093F10060
:1007B000219701501109FFEFCF1ADF0A011511052A
:1007C000B9F601C0B82E8B2DDF91CF911F910F91FB
:1007D000FF90EF90DF90CF90BF900895BF92CF929F
:1007E000DF92EF92FF920F931F93CF93DF937C01E1
:1007F0008B01EA010E94F108B82E811136C02097C2
:1008000031F028813981021B130BE20EF31EC12C3B
:10081000D12C26C08091E80085FD15C08091E800AC
:100820008B778093E800209749F0888199818C0D1F
:100830009D1D99838883A5E0BA2E17C00E94F108F8
:10084000882371F011C06091F100C7010E949A17CE
:100850008FEFE81AF80A015011098FEFC81AD80A69
:1008600001151105B9F601C0B82E8B2DDF91CF917E
:100870001F910F91FF90EF90DF90CF90BF90089560
:10088000BF92CF92DF92EF92FF920F931F93CF937D
:10089000DF936C018B017A010E94F108B82E81115F
:1008A0003CC0E8012197CC0DDD1DE114F10439F0C5
:1008B000F70120813181021B130BC21BD30BC12C0A
:1008C000D12C26C08091E80085FD17C08091E800FA
:1008D0008B778093E800E114F10451F0F7018081F7
:1008E00091818C0D9D1D91838083B5E0BB2E15C039
:1008F0000E94F108882361F00FC06091F100CE01E1
:100900000E949A17219701501109FFEFCF1ADF0AB1
:1009100001151105B9F601C0B82E8B2DDF91CF91CD
:100920001F910F91FF90EF90DF90CF90BF900895AF
:1009300040914101509142014617570748F0611517
:10094000710539F44091E8004E774093E80001C00A
:10095000BA01FC0140E033C080913A01882309F4D8
:1009600042C0853009F441C08091E80083FD39C060
:100970008091E80082FD2FC08091E80080FF1FC0B9
:100980009091F3008091F200392F20E0A901482BCB
:10099000CA0106C041914093F1006150710901966E
:1009A0006115710519F088309105A0F341E00897B1
:1009B00009F040E08091E8008E778093E8006115AF
:1009C000710551F64111C8CF06C080913A018823C4
:1009D00051F0853051F08091E80082FFF6CF80E041
:1009E000089581E0089582E0089583E00895FB0171
:1009F0003197E80FF91F80914101909142018617CC
:100A0000970748F06115710539F48091E8008E77F9
:100A10008093E80001C0BC0140E034C080913A01FD
:100A2000882309F443C0853009F442C08091E8006E
:100A300083FD3AC08091E80082FD30C08091E800DB
:100A400080FF20C09091F3008091F200392F20E0C8
:100A5000A901482BCA0107C040814093F10031979A
:100A60006150710901966115710519F08830910581
:100A700098F341E0089709F040E08091E8008E7714
:100A80008093E8006115710549F64111C7CF06C092
:100A900080913A01882351F0853051F08091E8002F
:100AA00082FFF6CF80E0089581E0089582E0089506
:100AB00083E008956115710529F44091E8004B77B2
:100AC0004093E800AC0128C080913A018823B9F135
:100AD000853079F18091E80083FD2DC08091E80098
:100AE00082FFF2CFFA0107C08091F1008193AF013C
:100AF0006150710961F0AF019091F3008091F200B3
:100B0000392F20E0D901A82BCD01892B69F78091DD
:100B1000E8008B778093E80061157105A9F6809154
:100B2000E80080FD0AC080913A01882341F08530B9
:100B3000B1F783E0089581E0089580E0089582E0B0
:100B40000895FB013197E80FF91F6115710539F51B
:100B500021C080913A018823A9F1853069F1809103
:100B6000E80083FD2BC08091E80082FFF2CF07C030
:100B70008091F100808331976150710959F0909113
:100B8000F3008091F200392F20E0A901482BCA011F
:100B9000892B71F78091E8008B778093E8006115CD
:100BA0007105B9F68091E80080FD0AC080913A0194
:100BB000882341F08530B1F783E0089581E00895FE
:100BC00080E0089582E008954091410150914201F2
:100BD0004617570748F06115710539F44091E80050
:100BE0004E774093E80001C0BA01FC0140E034C0F8
:100BF00080913A01882309F443C0853009F442C04A
:100C00008091E80083FD3AC08091E80082FD30C009
:100C10008091E80080FF20C09091F3008091F20065
:100C2000392F20E0A901482BCA0107C04491409305
:100C3000F10031966150710901966115710519F045
:100C40008830910598F341E0089709F040E08091E1
:100C5000E8008E778093E8006115710549F641112F
:100C6000C7CF06C080913A01882351F0853051F0FA
:100C70008091E80082FFF6CF80E0089581E008953A
:100C800082E0089583E00895FB013197E80FF91F92
:100C900080914101909142018617970748F06115B4
:100CA000710539F48091E8008E778093E80001C0E7
:100CB000BC0140E034C080913A01882309F443C06C
:100CC000853009F442C08091E80083FD3AC08091EC
:100CD000E80082FD30C08091E80080FF20C0909144
:100CE000F3008091F200392F20E0A901482BCA01BE
:100CF00007C044914093F10031976150710901960A
:100D00006115710519F08830910598F341E0089755
:100D100009F040E08091E8008E778093E80061154B
:100D2000710549F64111C7CF06C080913A01882369
:100D300051F0853051F08091E80082FFF6CF80E0DD
:100D4000089581E0089582E0089583E00895CF92A8
:100D5000DF92EF92FF920F931F93CF93DF93EB01FC
:100D600020914101309142012617370740F020972A
:100D700039F42091E8002E772093E80001C0E901C2
:100D80009C0180E03EC090913A01992309F44DC046
:100D9000953009F44CC09091E80093FD44C09091C7
:100DA000E80092FD3AC09091E80090FF2AC090912F
:100DB000F3008091F200F92EE12C8701082B6901E4
:100DC000C01AD10A08C0CA010E9492178093F1008C
:100DD00021970F5F1F4FA601400F511F742F652FE2
:100DE000209719F00830110570F381E008301105E3
:100DF00009F080E09091E8009E779093E800272F1B
:100E0000362F209709F0BFCF8111BDCF06C080914A
:100E10003A01882351F0853051F08091E80082FF3B
:100E2000F6CF80E005C081E003C082E001C083E02E
:100E3000DF91CF911F910F91FF90EF90DF90CF90B6
:100E40000895CF92DF92EF92FF920F931F93CF936B
:100E5000DF939B0121503109280F391F80914101F7
:100E6000909142018617970748F06115710539F492
:100E70008091E8008E778093E80001C0BC0180E09B
:100E800040C090913A01992309F450C0953009F47B
:100E90004FC09091E80093FD47C09091E80092FD0B
:100EA0003DC09091E80090FF2CC09091F30080919C
:100EB000F200F92EE12C8701082BEB016901C61A1B
:100EC000D70A08C0CA010E9492178093F1002197A7
:100ED0000F5F1F4FA6014C0F5D1F742F652F2097CA
:100EE00019F00830110570F381E00830110509F0A0
:100EF00080E09091E8009E779093E800272F362FAE
:100F0000BE016115710509F0BCCF8111BACF06C0D1
:100F100080913A01882351F0853051F08091E800AA
:100F200082FFF6CF80E005C081E003C082E001C00F
:100F300083E0DF91CF911F910F91FF90EF90DF90B1
:100F4000CF900895EF92FF920F931F93CF93DF936B
:100F5000EB01209729F42091E8002B772093E800FB
:100F60008C0128C080913A018823B1F1853071F15C
:100F70008091E80083FD2CC08091E80082FFF2CFD1
:100F800009C06091F100C8010E949A170F5F1F4FBE
:100F9000219759F09091F3008091F200F92EE12C05
:100FA0009701282BC901892B61F78091E8008B7785
:100FB0008093E8002097B1F68091E80080FD0AC098
:100FC00080913A01882341F08530B1F783E005C074
:100FD00081E003C080E001C082E0DF91CF911F91EA
:100FE0000F91FF90EF900895EF92FF920F931F9350
:100FF000CF93DF93EB018B0101501109080F191FEB
:10100000209749F523C080913A018823B1F18530BA
:1010100071F18091E80083FD2CC08091E80082FF8F
:10102000F2CF09C06091F100C8010E949A170150E7
:101030001109219759F09091F3008091F200F92E57
:10104000E12C9701282BC901892B61F78091E800D9
:101050008B778093E8002097B1F68091E80080FDBF
:101060000AC080913A01882341F08530B1F783E0CE
:1010700005C081E003C080E001C082E0DF91CF9134
:101080001F910F91FF90EF900895982F2CC090938F
:10109000E900981739F07091EC002091ED00509123
:1010A000F00003C0242F762F50E021FD02C09F5F87
:1010B0001AC03091EB003E7F3093EB003091ED0091
:1010C0003D7F3093ED003091EB0031603093EB00C9
:1010D0007093EC002093ED005093F0002091EE000F
:1010E00027FDE5CF07C0973090F28F708093E9001D
:1010F00081E0089580E008950F931F93CF93DF93CD
:10110000062FEC0110E030C09881911103C01F5FE1
:1011100025962AC02C81E981FA817B81892F8F70E5
:10112000873010F080E023C0223010F056E001C07C
:1011300052E028E030E040E003C04F5F220F331F51
:101140002E173F07D0F34295407F452B692F661F2E
:101150006627661F90E4799F90011124622B0E94FC
:1011600045088111D4CFDECF1013CECF81E0DF91BF
:10117000CF911F910F9108951092F40080E0809319
:10118000E9001092F0001092E8001092ED009091AA
:10119000EB009E7F9093EB008F5F873081F708957F
:1011A00080913B0187FD05C08091E80080FF0EC063
:1011B00012C08091E80082FD05C080913A01811142
:1011C000F8CF08958091E8008B7708C080913A01AC
:1011D0008111EACF08958091E8008E778093E8002E
:1011E00008958091E4009091E50047E92091EC009A
:1011F00020FD1FC023C020913A01222391F0253009
:1012000091F02091EB0025FD10C02091E400309179
:10121000E5002817390751F34150C90139F784E037
:10122000089582E0089583E0089581E0089580E0C4
:1012300008952091E80020FFDECFF9CF2091E8004B
:1012400022FFD9CFF4CF0E9491090E949909E0EEC4
:10125000F0E0808181608083E8EDF0E080818F772D
:10126000808319BCA7EDB0E08C918E7F8C93808138
:101270008F7E80831092390108950F931F93CF932F
:10128000DF930E9491090E949909C8EDD0E08881FE
:101290008F77888388818068888388818F7D888321
:1012A00019BC10923A011092360110923801109236
:1012B000370100EE10E0F80180818B7F8083888108
:1012C0008160888342E060E080E00E944508E1EEB2
:1012D000F0E080818E7F8083E2EEF0E080818160AB
:1012E0008083808188608083F80180818E7F808305
:1012F000888180618883DF91CF911F910F9108953C
:10130000E8EDF0E080818F7E8083E7EDF0E0808182
:101310008160808384E082BF81E0809339010C94F6
:101320003D09E8EDF0E080818E7F80831092E2003D
:1013300008951092DA001092E10008951F920F9222
:101340000FB60F9211242F933F934F935F936F9398
:101350007F938F939F93AF93BF93EF93FF9380916E
:10136000E10082FF0BC08091E20082FF07C0809104
:10137000E1008B7F8093E1000E94D00C8091DA0025
:1013800080FF1DC08091D80080FF19C08091DA00D5
:101390008E7F8093DA008091D90019BC80FF0BC04A
:1013A00082E089BD09B400FEFDCF81E080933A015F
:1013B0000E94C61604C010923A010E94C71680917E
:1013C000E10080FF19C08091E20080FF15C080918C
:1013D000E2008E7F8093E2008091E2008061809342
:1013E000E2008091D80080628093D80019BC85E02B
:1013F00080933A010E94D00C8091E10084FF2DC0BF
:101400008091E20084FF29C019BC82E089BD09B443
:1014100000FEFDCF8091D8008F7D8093D800809111
:10142000E1008F7E8093E1008091E2008F7E8093C7
:10143000E2008091E20081608093E20080913601B9
:10144000811104C08091E30087FF02C084E001C0E5
:1014500081E080933A010E94D00C8091E10083FFEB
:1014600029C08091E20083FF25C08091E100877F41
:101470008093E10082E080933A01109236018091DE
:10148000E1008E7F8093E1008091E2008E7F809367
:10149000E2008091E20080618093E20042E060E03F
:1014A00080E00E9445088091F00088608093F00001
:1014B0000E94D00CFF91EF91BF91AF919F918F91BE
:1014C0007F916F915F914F913F912F910F900FBE40
:1014D0000F901F9018951F920F920FB60F92112424
:1014E0002F933F934F935F936F937F938F939F932C
:1014F000AF93BF93CF93EF93FF938091E9008F70E9
:101500009091EC0090FF02C090E801C090E0C92FDC
:10151000C82B1092E9008091F000877F8093F00043
:1015200078940E94670B1092E9008091F000886027
:101530008093F000CF70C093E900FF91EF91CF91BD
:10154000BF91AF919F918F917F916F915F914F91DB
:101550003F912F910F900FBE0F901F901895CF9332
:10156000DF9318C0EB01A881B981CC91D0E0F901DB
:10157000C217D30708F4FE01AE0FBF1FEB01B983FA
:10158000A8832E1B3F0BFC013183208311962C91E5
:10159000241731F0EC01288139812115310511F72B
:1015A000DF91CF910895EF92FF920F931F93CF9306
:1015B000DF93DC011EC0EB01E880F980E7010881C0
:1015C00010E0CF010E171F0708F4C801E80EF91E3E
:1015D000EB01F982E882E81BF90B1196FC93EE937C
:1015E000F7018181841751F0821303C01D921C9270
:1015F00005C0ED91FC9111973097E9F6DF91CF91FD
:101600001F910F91FF90EF900895FF920F931F93FA
:10161000CF93DF93EC018B01F42E422F0E94AF0A8F
:1016200088819981892B51F04F2DB801CE01DF912E
:10163000CF911F910F91FF900C94AF0ADF91CF9142
:101640001F910F91FF900895AF92BF92CF92DF92BA
:10165000EF92FF920F931F93CF93DF938C017B0147
:101660005A0124C0F701C080D180F601808190E04A
:101670009E018C179D0708F49C01C601820F931FE1
:10168000F70191838083AE01421B530BF801518314
:101690004083F5010995823049F0813069F4F70102
:1016A000D182C082F801D183C08306C0F801C08115
:1016B000D1812097B9F682E0DF91CF911F910F91F0
:1016C000FF90EF90DF90CF90BF90AF9008951F9361
:1016D000CF93DF93CDB7DEB7AC970FB6F894DEBFEC
:1016E0000FBECDBFEBE3F1E08091F100819321E0EB
:1016F000E334F207C9F70E94CC168091E80083FF1B
:1017000037C180913B0190913C01953009F488C02C
:1017100038F49130B1F170F0933009F029C131C043
:10172000983009F4F8C0993009F404C1963009F0F2
:101730001FC19DC0803821F0823809F019C108C04E
:101740008091370190913801992389F082600FC010
:1017500080913F01909140018F7099278093E9001B
:101760008091EB0085FB882780F91092E900909129
:10177000E800977F9093E8008093F1001092F100C9
:10178000D5C0882319F0823009F0F2C08F7121F0A2
:10179000823009F0EDC00BC080913D01813009F02D
:1017A000E7C0933009F080E0809338012FC080912A
:1017B0003D0181112BC080913F01909140018F70BC
:1017C0009927009709F4D4C08093E9002091EB0099
:1017D00020FF1CC020913C01233021F48091EB00BC
:1017E000806212C09091EB0090619093EB0021E039
:1017F00030E001C0220F8A95EAF72093EA001092A8
:10180000EA008091EB0088608093EB001092E90081
:101810008091E800877F8093E8000E94D008A8C0EC
:101820008111A6C080913D0190913E018F7799274B
:10183000182F9091E3009078982B9093E30080917B
:10184000E800877F8093E8000E94D0088091E8003C
:1018500080FFFCCF8091E30080688093E300112338
:1018600011F083E001C082E080933A0181C080588A
:10187000823008F07DC080913D0190913E018C3D09
:1018800023E0920779F583E08A838AE289834FB760
:10189000F894DE01139620E03EE051E2E32FF0E001
:1018A00050935700E49120FF03C0E295EF703F5F33
:1018B000EF708E2F90E0EA3010F0C79601C0C0960E
:1018C0008D939D932F5F243149F74FBF8091E8009E
:1018D000877F8093E8006AE270E0CE0101960E9463
:1018E000980413C0AE01455D5F4F60913F010E94B7
:1018F0001B100097E9F12091E800277F2093E80072
:10190000BC018BA59CA50E94E4058091E8008B7723
:101910008093E8002DC0803859F58091E800877FDA
:101920008093E800809136018093F1008091E80077
:101930008E7771CF81111CC090913D019230C0F41F
:101940008091E800877F8093E800909336010E94A1
:10195000D00880913601811104C08091E30087FF97
:1019600002C084E001C081E080933A010E94C81661
:101970008091E80083FF0AC08091E800877F809310
:10198000E8008091EB0080628093EB00AC960FB68C
:10199000F894DEBF0FBECDBFDF91CF911F910895A8
:1019A0000895CF9380913A018823B1F08091E900A6
:1019B0008F709091EC0090FF02C090E801C090E021
:1019C000C92FC82B1092E9008091E80083FD0E9486
:1019D000670BCF70C093E900CF910895CF93DF9349
:1019E000EC014096FC018BE0DF011D928A95E9F73E
:1019F00082E08C83898783E08E8761E0CE01019647
:101A00000E947C08882371F061E0CE0106960E9456
:101A10007C08882339F061E0CE010B96DF91CF91ED
:101A20000C947C0880E0DF91CF910895FC01CB01FC
:101A300020913A012430C9F444895589668977890F
:101A4000452B462B472B89F021812F702093E900ED
:101A5000FC0101900020E9F7BF0161507109681B8A
:101A6000790B40E050E00C94520182E008950F930E
:101A70001F93FC01CB01BA0120913A01243091F46B
:101A80000489158926893789012B022B032B51F0F4
:101A900021812F702093E90040E050E01F910F91C9
:101AA0000C94520182E01F910F910895CF93C62F9D
:101AB00020913A012430F9F4FC0144895589668962
:101AC0007789452B462B472BB1F081818F7080930E
:101AD000E9008091E80085FF04C0C093F10080E038
:101AE0000BC08091E8008E778093E8000E94F10897
:101AF000882399F301C082E0CF910895FB01682FFC
:101B0000848595850E94560D882319F02FEF3FEFAD
:101B100002C020E030E0C901089520913A0124304C
:101B200059F5FC014489558966897789452B462BEF
:101B3000472B11F181818F708093E9003091F30080
:101B40002091F200932F80E0822B892B11F480E00A
:101B500008959091E8008091E8008E778093E800E6
:101B600095FDF5CF0E94F108811107C09091E80022
:101B70009E779093E800089582E0089520913A01BD
:101B8000243091F4FC014489558966897789452B75
:101B9000462B472B49F021812F702093E90020919B
:101BA000E80020FD0C948D0D089520913A01243019
:101BB00009F01FC0FC014489558966897789452B46
:101BC000462B472BB1F086818F708093E90080917E
:101BD000E80082FF0EC03091F3002091F200932FB5
:101BE00080E0822B892B41F48091E8008B778093F1
:101BF000E80020E030E007C09091F3008091F2000F
:101C0000392F20E0282BC901089520913A01243072
:101C100019F02FEF3FEF2EC0FC01448955896689EA
:101C20007789452B462B472BA1F386818F708093B4
:101C3000E9008091E80082FFECCF3091F300209121
:101C4000F200932F80E0822B892B21F02091F1006C
:101C500030E002C02FEF3FEF5091F3004091F200CF
:101C6000952F80E0842B892B29F48091E8008B77D5
:101C70008093E800C9010895CF93DF93EC010AC077
:101C800080913A01882371F08C859D850E94BE0D5C
:101C90000E94D10C8C859D850E94050E9C0197FDAC
:101CA000EFCF02C02EEF3FEFC901DF91CF91089532
:101CB000FC01848595850E94050E9C0197FF02C05A
:101CC0002EEF3FEFC90108950F931F93CF93DF933A
:101CD000CDB7DEB728970FB6F894DEBF0FBECDBFE5
:101CE0008C0180913A01843059F5F8014489558975
:101CF00066897789452B462B472B11F183858F7099
:101D00008093E90088E0E1E2F1E0DE0111960190C4
:101D10000D928A95E1F740E050E068E070E0CE0176
:101D200001960E94520140E050E062E070E0C8017C
:101D300042960E9452018091E8008E778093E800DD
:101D400028960FB6F894DEBF0FBECDBFDF91CF91BE
:101D50001F910F910895FB012EE0DB011D922A9542
:101D6000E9F723E023832EE73DE03187208728E54C
:101D70003EE033872287958784870895FB012EE014
:101D8000DB011D922A95E9F723E023832EE73DE04E
:101D9000318720872CE33EE033872287958784872D
:101DA00008950895CF93DF93EC018091E80083FFBD
:101DB000AEC0888190E020913F013091400128170A
:101DC000390709F0A4C080913C01813261F020F410
:101DD000803209F09CC03EC0823209F470C0833268
:101DE00009F095C082C080913B01813A09F08FC013
:101DF0008091E800877F8093E8008091E80080FF71
:101E0000FCCF4C895D896E897F894093F100BB27A7
:101E1000A72F962F852F8093F100CB01AA27BB27F0
:101E20008093F100472F5527662777274093F100CD
:101E3000888D8093F100898D8093F1008A8D809345
:101E4000F1008091E8008E778093E800DF91CF91D8
:101E50000C94D00880913B01813209F058C08091E8
:101E6000E800877F8093E80005C080913A018823CD
:101E700009F44DC08091E80082FFF7CF3091F10066
:101E80002091F1009091F1008091F1003C8B2D8B1D
:101E90009E8B8F8B8091F100888F8091F100898FCC
:101EA0008091F1008A8F8091E8008B778093E80021
:101EB0000E94D008CE01DF91CF910C94D016809172
:101EC0003B01813221F58091E800877F8093E80013
:101ED0000E94D00880913D0190913E01998B888BA2
:101EE000CE01DF91CF910C94EC1680913B018132B1
:101EF00071F48091E800877F8093E8000E94D00809
:101F000060913D01CE01DF91CF910C94D10EDF9114
:101F1000CF9108959091C80095FFFCCF8093CE009B
:101F200080E090E008958091C80087FF08C080910C
:101F3000C80087FF07C02091CE0030E005C02EEF1B
:101F40003FEF02C02FEF3FEFC90108958091C80015
:101F500087FFFCCF8091C80087FF04C02091CE008E
:101F600030E002C02FEF3FEFC901089507C0309164
:101F7000C80035FFFCCF2093CE000196FC012491D0
:101F80002111F5CF0895FC0106C09091C80095FF7E
:101F9000FCCF8093CE0081918111F7CF0895680F17
:101FA000791F09C0FC012191CF013091C80035FF94
:101FB000FCCF2093CE0086179707A1F70895FC0168
:101FC000009759F483E491E090936B0480936A0442
:101FD00090936D0480936C04FC018EE0DF011D92F0
:101FE0008A95E9F783E083838AE89FE09187808779
:101FF00083E99FE0938782870895FC01009759F455
:1020000083E491E090936B0480936A0490936D0451
:1020100080936C04FC018EE0DF011D928A95E9F744
:1020200083E083838AE89FE09187808786EA9FE048
:10203000938782870895292F33272230310539F07D
:102040002330310549F02130310521F128C0EEE37C
:10205000F0E088ED90E027C099278130910561F08C
:102060008230910581F0892BD1F4E4EDF0E0E49128
:10207000F0E084ED90E017C0EEEBF0E0E491F0E0EA
:102080008EEB90E010C0ECEAF0E0E491F0E08CEA36
:1020900090E009C0E2E1F0E086E191E004C0E0E018
:1020A000F0E080E090E0DA018D939C93CF010895F9
:1020B00084B1897F84B985B1867F85B91CBC1DBC7C
:1020C000089584B1866084B923982B9A8DB5816078
:1020D0008DBD80E58CBD0895599885E08EBD0DB409
:1020E00007FEFDCF1EBC0DB407FEFDCF0EB400FCF5
:1020F000F9CF599A08950E946110599886E08EBDD3
:102100000DB407FEFDCF599A599881E08EBD0DB4EC
:1021100007FEFDCF1EBC0DB407FEFDCF599A59989E
:1021200086E08EBD0DB407FEFDCF599A599880E622
:102130008EBD0DB407FEFDCF599A0E946C100C9411
:1021400058100F931F93CF93DF9300D000D01F92AE
:10215000CDB7DEB74D8369837A838B839C830E94DE
:1021600061100E946C10599826E02EBD9C818B81D5
:102170007A8169814D810DB407FEFDCF599A599836
:1021800022E02EBD0DB407FEFDCF8C0122273327A0
:102190000EBD0DB407FEFDCF072F182F292F3327B3
:1021A0000EBD0DB407FEFDCF6EBD0DB407FEFDCF15
:1021B0004EBD0DB407FEFDCF599A0F900F900F90B2
:1021C0000F900F90DF91CF911F910F910C945810A9
:1021D000599882E08A95F1F700C01B9BFECF599A6F
:1021E00008958F929F92BF92CF92DF92EF92FF92CB
:1021F0000F931F93CF93DF9300D000D0CDB7DEB7FE
:102200004A0189012230310530F42130310509F0CD
:10221000A2C0FA018EC069837A838B839C830E945B
:1022200061100E946C10599820E72EBD9C818B8113
:102230007A8169810DB407FEFDCF599A599826E03D
:102240002EBD0DB407FEFDCF599A59982DEA2EBD2B
:102250000DB407FEFDCF6C01EE24FF24CEBC0DB4FF
:1022600007FEFDCFC72ED82EE92EFF24CEBC0DB41D
:1022700007FEFDCF6EBD0DB407FEFDCFF40120813A
:102280002EBD0DB407FEFDCFF40121812EBD0DB48E
:1022900007FEFDCF599A69837A838B839C830E94C2
:1022A000E81042E0E42EF12C6801F2E0CF1AD108E8
:1022B0005DEAB52E69817A818B819C811FC0BEBC8D
:1022C0000DB407FEFDCFF401EE0DFF1D20812EBDE4
:1022D0000DB407FEFDCF21812EBD0DB407FEFDCF4D
:1022E000599A69837A838B839C830E94E81022E049
:1022F000E20EF11C9C818B817A8169815998CE1400
:10230000DF04E8F624E02EBD0DB407FEFDCF599A98
:10231000599820E82EBD0DB407FEFDCF599AE0165E
:10232000F106C8F4F401EE0DFF1D6E0D7F1D811D39
:10233000911D40810F900F900F900F90DF91CF91E2
:102340001F910F91FF90EF90DF90CF90BF909F90E3
:102350008F900C94A1100F900F900F900F90DF9121
:10236000CF911F910F91FF90EF90DF90CF90BF9092
:102370009F908F900895EF92FF920F931F93CF93AA
:10238000DF9300D000D0CDB7DEB77C01890149834F
:102390005A836B837C830E946110599883E08EBDC1
:1023A0007C816B815A8149810DB407FEFDCFCB0141
:1023B000AA27BB278EBD0DB407FEFDCFBB27A72FD5
:1023C000962F852F8EBD0DB407FEFDCF4EBD0DB4EB
:1023D00007FEFDCF80E090E00AC0F701E80FF91F8B
:1023E0001EBC0DB407FEFDCF2EB5208301968017CD
:1023F000910799F7599A0F900F900F900F90DF91D6
:10240000CF911F910F91FF90EF900C945810FC0109
:10241000A081B1816C9380819181019691838083A9
:10242000268137818217930721F4848195819183D6
:1024300080832FB7F894828593850196938782874E
:102440002FBF089510927A00922F977030E4439F27
:10245000A0011124942B90937C00283030F090E858
:10246000699FB0011124606203C067956627679574
:1024700060937B0020930001886E80937A0008951A
:1024800023B122952F7080910101281709F469C0AA
:1024900020930101223020F0822F8450863038F4BE
:1024A00040911E0160911F018091200158C010923F
:1024B0007A0057C0E0915403F09155034191F09395
:1024C0005503E09354038091580390915903E81702
:1024D000F90741F420915603309157033093550387
:1024E00020935403E0915403F09155032191F0930C
:1024F0005503E0935403E817F90741F4809156031C
:102500009091570390935503809354033FB7F894E9
:1025100080915C0390915D03029790935D0380939B
:102520005C033FBF28984EBD0DB407FEFDCF8EB5AE
:102530002EBD0DB407FEFDCF4EB5289A8A3A89F418
:10254000842F87708093200143FB662760F9609396
:102550001F014295437040931E01209101010E948A
:1025600022122FB7F89480915C0390915D032FBFE6
:10257000892B09F09FCF0895E9ECF0E0808180611C
:1025800080830895E9ECF0E080818F7E8083089558
:102590000F931F93CF93DF93809104018F708093EB
:1025A000E9008091E80085FF6FC08FB7F894C09173
:1025B0006804D09169048FBF209709F452C06091DC
:1025C0006004709161048B010C0F1D1F80916404E5
:1025D0009091650480179107D8F0AE0183E091E0F7
:1025E0000E94370D80916004909161048C0F9D1FB3
:1025F0009093610480936004209164043091650499
:102600008217930709F5809162049091630418C0C2
:10261000081B190BAE01401B510B83E091E00E9497
:10262000370D6091620470916304A80183E091E02A
:102630000E94370D8091620490916304800F911F76
:1026400090936104809360042FB7F894809168049C
:10265000909169048C1B9D0B90936904809368048E
:102660002FBF2FB7F89480916804909169042FBF11
:102670000A9750F45D980E94BC1206C09091C80061
:1026800095FFFCCF8093CE0083E091E00E94050E81
:1026900097FFF4CFDF91CF911F910F91089514BC54
:1026A00085E085BD81E080936E00089590E080E82C
:1026B0000FB6F89480936100909361000FBE519A19
:1026C000599A509A3F9A83EF80937E0083E08093DB
:1026D0007D000E944F130C94800910927A00109292
:1026E000C90084B1897F84B985B1867F85B91CBC56
:1026F0001DBC5898479855985D9A089583E091E0DD
:102700000E948D0DEEE5F4E02FB7F8948EE593E08E
:102710009183808393838283958384838EE594E081
:102720009783868380E091E0918780871386128665
:102730002FBFE2E5F3E02FB7F89481E591E09183B4
:102740008083938382839583848381E593E0978359
:10275000868380E092E091878087138612862FBF60
:102760008FE08093010184B18F7084B985B18F703F
:1027700085B9599A209A289A84B1866084B9239899
:102780002B9A8DB581608DBD80E58CBD81E090E098
:102790009093CD008093CC0086E08093CA0082E0C5
:1027A0008093C80088E98093C900539A52985A9A36
:1027B000559A5D98589A08955D9A589847988FEF62
:1027C00084B90895589847988FEC97E00197F1F7EE
:1027D00000C00000479A4D9BFECF089585B9589AD6
:1027E000589808958FEF85B98AE090E0589A5898E4
:1027F0000197E1F708958F929F92AF92BF92CF9287
:10280000DF92EF92FF920F931F93CF93DF930E947B
:10281000DC130E94E21325E030E040E050E0BA0112
:102820008EE593E00E94BB1180915E038A3A09F025
:102830005FC080916003C0906103D12CE12CF12C2A
:102840007601DD24CC24D82A80915F03C82A8091A8
:102850006203F82A45E050E060E070E01FEF12C02C
:1028600020E031E08EE593E00E94BB1114B9CEE583
:10287000D3E089910E94EE13B501A40184E0CE3526
:10288000D807B9F7812C912C54019394840E951E8E
:10289000A61EB71E8C149D04AE04BF0408F34C158D
:1028A0005D056E057F0570F0DF91CF911F910F914F
:1028B000FF90EF90DF90CF90BF90AF909F908F9060
:1028C0000C94F2138BEFC80E2C2D30E08EE593E0C4
:1028D0000E94BB118FEF84B90EE513E0E80103C03D
:1028E00089910E94EE138C2F801B8C15C8F3DCCFCE
:1028F000DF91CF911F910F91FF90EF90DF90CF90DC
:10290000BF90AF909F908F9008958F929F92AF92BB
:10291000BF92CF92DF92EF92FF920F931F93CF93CC
:10292000DF93C0910201C23071F0C33009F411C2CB
:10293000C13009F01EC20E946D1382E08093020133
:1029400010922A0116C283E091E00E94050E082F22
:1029500097FD0FC220912A01223009F4A7C030F45C
:10296000222369F0213009F004C247C0243009F461
:1029700086C108F456C1253009F0FBC1CEC11092C2
:102980002B0110922C0110922D0110922E01109209
:102990002F011092300110923101109232018634D1
:1029A00031F4109233011092340181E007C0863572
:1029B000C1F41092330181E08093340180932A01A5
:1029C00062E583E091E0DF91CF911F910F91FF903D
:1029D000EF90DF90CF90BF90AF909F908F900C942E
:1029E000560D823521F481E080933301E7CF8534A1
:1029F00009F0BFC10E947B1040C1C0902B01D09054
:102A00002C01E0902D01F0902E01482F50E060E065
:102A100070E0C601E3E0880F991FEA95E1F704C072
:102A2000440F551F661F771F8A95D2F780912F019B
:102A300090913001A0913101B0913201842B952BFE
:102A4000A62BB72B80932F0190933001A0933101D7
:102A5000B0933201D701C6010196A11DB11D80932B
:102A60002B0190932C01A0932D01B0932E0104977C
:102A7000A105B10508F47DC110922B0110922C0123
:102A800010922D0110922E0180913301882341F084
:102A900083E080932A010E94DC130E94E21304C0A9
:102AA000C0932A010E947B106FE48BCFC0902B0152
:102AB000D0902C01E0902D01F0902E01CD28CE2851
:102AC000CF2839F4482F65E070E080E090E00E9464
:102AD000A11080912B0190912C01A0912D01B0911A
:102AE0002E01182F1150C12CD12C7601C394C80E81
:102AF000D91EEA1EFB1EC0922B01D0922C01E0923F
:102B00002D01F0922E01C12FD0E0FE01E25AFC4FC0
:102B100000831F3F81F4CD28CE28CF2861F0BC016F
:102B2000CD016A5F71098109910920E031E04EE52C
:102B300053E00E94F11080912B0190912C01A09103
:102B40002D01B0912E01C0902F01D0903001E09066
:102B50003101F09032018C159D05AE05BF0509F0DD
:102B600008C11F3FB1F09E012F5F3F4FBC01CD0157
:102B70006B5F7F4F8F4F9F4F6901EE24D7FCE0942E
:102B8000FE2C6C197D098E099F094EE553E00E94C9
:102B9000F11085E88A95F1F7000080902B01909064
:102BA0002C01A0902D01B0902E0185E0880E911C83
:102BB000A11CB11CC12CD12C7601C394C0E0D0E083
:102BC000B501A4010C2E04C07695679557954795DD
:102BD0000A94D2F7C701B6010E94A11085E88A9530
:102BE000F1F7000028968FEFC81AD80AE80AF80A09
:102BF000C032D10529F785E88A95F1F700004AEA45
:102C000060E070E0CB010E94A11064E483E091E0F9
:102C10000E94560D80913401882309F47AC084E023
:102C200079C00E94EE1380912B0190912C01A0910C
:102C30002D01B0912E010196A11DB11D80932B0194
:102C400090932C01A0932D01B0932E0140912F0160
:102C500050913001609131017091320184179507D4
:102C6000A607B70709F085C00E94F21310922A0147
:102C700083E0809302010E947E1364E4A2CE833538
:102C800009F077C080912B0190912C01A0912D012A
:102C9000B0912E010596A11DB11D80932B0190933B
:102CA0002C01A0932D01B0932E0140E050E0BA0119
:102CB00023C0C12CD12C7601D394C40ED51EE61EA0
:102CC000F71E8C159D05AE05BF0530F496013A95AB
:102CD000EC01C21BD30B02C0C0E0D1E09E018EE527
:102CE00093E00E94BB11AE016EE573E083E091E0DA
:102CF0000E94370DB701A60180912B0190912C0104
:102D0000A0912D01B0912E01481759076A077B0742
:102D100080F285E080932A012CC08C3451F50E940A
:102D2000FB1364E483E091E00E94560D10922A01A7
:102D300083E080930201DF91CF911F910F91FF906B
:102D4000EF90DF90CF90BF90AF909F908F900C94BA
:102D50007E130E94C812DF91CF911F910F91FF90B7
:102D6000EF90DF90CF90BF90AF909F908F900C949A
:102D70004012DF91CF911F910F91FF90EF90DF9064
:102D8000CF90BF90AF909F908F9008950895089531
:102D900083E091E00C94EE0C83E091E00C94D20E71
:102DA000FC0184899589A689B789803B9440A10557
:102DB000B10589F487E797E79093010880930008AD
:102DC0002BE088E190E00FB6F894A895809360001E
:102DD0000FBE209360000895FC01208920FD14C0DF
:102DE00080915103883058F4809135018F5F809332
:102DF0003501853048F081E08093020108951092FA
:102E0000510381E08093350108951F920F920FB610
:102E10000F9211242F933F934F935F936F937F9360
:102E20008F939F93AF93BF93EF93FF936091CE00E7
:102E30008EE594E00E9407128091680490916904E5
:102E40008536910510F05D9A01C05D98873991052E
:102E500010F00E94C212FF91EF91BF91AF919F912C
:102E60008F917F916F915F914F913F912F910F9033
:102E70000FBE0F901F9018951F920F920FB60F92D2
:102E800011242F933F934F935F936F937F938F936F
:102E90009F93AF93BF93EF93FF936091780082E588
:102EA00093E00E940712809100016091790020E177
:102EB000829FC0011124682B82E593E00E940712D3
:102EC000FF91EF91BF91AF919F918F917F916F9102
:102ED0005F914F913F912F910F900FBE0F901F90D8
:102EE00018951F920F920FB60F9211248F93809115
:102EF00051038F5F809351038F910F900FBE0F90FE
:102F00001F9018950E94561378940E94FB130E94FC
:102F10007E130E94851483E091E00E94BE0D0E9402
:102F2000D10CF7CFF999FECF92BD81BDF89A9927C0
:102F300080B50895262FF999FECF92BD81BDF89AEC
:102F4000019700B4021639F01FBA20BD0FB6F894ED
:0C2F5000FA9AF99A0FBE0895F894FFCF8A
:102F5C000F0F030083100000010410000001820811
:102F6C000000010000000000000000000000010152
:0A2F7C0005A1200000000002000083
:00000001FF
