:100000000C9494000C94B1000C94B1000C94B100C9
:100010000C94B1000C94B1000C94B1000C94B1009C
:100020000C94B1000C94B1000C94AC090C94790AB6
:100030000C94B1000C94B1000C94B1000C94B1007C
:100040000C94B1000C94B1000C94B1000C94B1006C
:100050000C94B1000C94B1000C94B1000C94B1005C
:100060000C94B1000C94F5160C94B1000C94B100F2
:100070000C94B1000C9427170C94B1000C94B100AF
:100080000C94B1000C94B1000C94B1000C94B1002C
:100090000C94B1000C94B1000C94B1000C94B1001C
:1000A0000C94B1000C94B1000C94B1001C034D00F1
:1000B0006F006A006F002000560032000000180335
:1000C00045006D00620020004D0069006300720071
:1000D0006F0000000403090409023E00020100C091
:1000E000320904000001020201000524001001048D
:1000F0002402060524060001070582030800FF0903
:10010000040100020A0000000705040210000507B0
:100110000583021000051201100102000008EB0324
:10012000442101000102DC0111241FBECFEFD5E004
:10013000DEBFCDBF11E0A0E0B1E0E0E1FFE202C030
:1001400005900D92AA32B107D9F714E0AAE2B1E006
:1001500001C01D92AE36B107E1F70E945C170C9406
:1001600086170C94000019BC82E089BD09B400FE1A
:10017000FDCF8091D8008F7D8093D8008091E000E2
:1001800082608093E0008091E00081FDFCCF0895C3
:10019000DF92EF92FF920F931F93CF93DF93EC01C7
:1001A0008B010E94FF08D82E811130C00115110566
:1001B00029F0F80120813181C21BD30BE12CF12CF5
:1001C00021C08091E80085FD17C08091E8008B7701
:1001D0008093E8000115110551F0F80180819181AB
:1001E0008E0D9F1D9183808385E0D82E0FC00E94C5
:1001F000FF08882339F009C08091F1002197FFEFB3
:10020000EF1AFF0A2097E9F601C0D82E8D2DDF9155
:10021000CF911F910F91FF90EF90DF900895DF92A3
:10022000EF92FF920F931F93CF93DF93EC018B011B
:100230000E94FF08D82E811130C00115110529F048
:10024000F80120813181C21BD30BE12CF12C21C09C
:100250008091E80085FD17C08091E8008E7780933B
:10026000E8000115110551F0F801808191818E0D92
:100270009F1D9183808395E0D92E0FC00E94FF08B7
:10028000882339F009C01092F1002197FFEFEF1A8F
:10029000FF0A2097E9F601C0D82E8D2DDF91CF916E
:1002A0001F910F91FF90EF90DF900895BF92CF9232
:1002B000DF92EF92FF920F931F93CF93DF937C0116
:1002C000EB018A010E94FF08B82E811135C001158B
:1002D000110539F0F80120813181C21BD30BE20EE8
:1002E000F31EC12CD12C24C08091E80085FD17C0DD
:1002F0008091E8008E778093E8000115110551F098
:10030000F801808191818C0D9D1D9183808325E072
:10031000B22E12C00E94FF08882351F00CC0F701D2
:1003200081917F018093F1002197FFEFCF1ADF0ABF
:100330002097D1F601C0B82E8B2DDF91CF911F9160
:100340000F91FF90EF90DF90CF90BF900895BF92F4
:10035000CF92DF92EF92FF920F931F93CF93DF9391
:100360006C018B017A010E94FF08B82E81113AC0FE
:10037000E8012197CC0DDD1DE114F10439F0F701FE
:1003800020813181021B130BC21BD30BC12CD12C3A
:1003900024C08091E80085FD17C08091E8008E7729
:1003A0008093E800E114F10451F0F701808191811C
:1003B0008C0D9D1D9183808335E0B32E13C00E9468
:1003C000FF08882351F00DC088818093F1002197A8
:1003D00001501109FFEFCF1ADF0A01151105C9F607
:1003E00001C0B82E8B2DDF91CF911F910F91FF90FF
:1003F000EF90DF90CF90BF900895BF92CF92DF92A1
:10040000EF92FF920F931F93CF93DF937C01EB0149
:100410008A010E94FF08B82E811135C0011511050F
:1004200039F0F80120813181C21BD30BE20EF31E9B
:10043000C12CD12C24C08091E80085FD17C080918B
:10044000E8008B778093E8000115110551F0F80161
:10045000808191818C0D9D1D9183808345E0B42E18
:1004600012C00E94FF08882351F00CC08091F10057
:10047000F70181937F012197FFEFCF1ADF0A2097C1
:10048000D1F601C0B82E8B2DDF91CF911F910F9126
:10049000FF90EF90DF90CF90BF900895BF92CF92E2
:1004A000DF92EF92FF920F931F93CF93DF936C0134
:1004B0008B017A010E94FF08B82E81113AC0E80131
:1004C0002197CC0DDD1DE114F10439F0F7012081F5
:1004D0003181021B130BC21BD30BC12CD12C24C0A6
:1004E0008091E80085FD17C08091E8008B778093AC
:1004F000E800E114F10451F0F701808191818C0D45
:100500009D1D9183808355E0B52E13C00E94FF0886
:10051000882351F00DC08091F1008883219701500C
:100520001109FFEFCF1ADF0A01151105C9F601C045
:10053000B82E8B2DDF91CF911F910F91FF90EF90EF
:10054000DF90CF90BF900895BF92CF92DF92EF924D
:10055000FF920F931F93CF93DF937C01EB018A01EE
:100560000E94FF08B82E811137C00115110539F01E
:10057000F80120813181C21BD30BE20EF31EC12C86
:10058000D12C26C08091E80085FD17C08091E8003D
:100590008E778093E8000115110551F0F8018081F4
:1005A00091818C0D9D1D9183808365E0B62E14C0D2
:1005B0000E94FF08882361F00EC0F70184918093A8
:1005C000F100FFEFEF1AFF0A21978FEFC81AD80A40
:1005D0002097C1F601C0B82E8B2DDF91CF911F91CE
:1005E0000F91FF90EF90DF90CF90BF900895BF9252
:1005F000CF92DF92EF92FF920F931F93CF93DF93EF
:100600006C018B017A010E94FF08B82E81113BC05A
:10061000E8012197CC0DDD1DE114F10439F0F7015B
:1006200020813181021B130BC21BD30BC12CD12C97
:1006300025C08091E80085FD17C08091E8008E7785
:100640008093E800E114F10451F0F7018081918179
:100650008C0D9D1D9183808375E0B72E14C00E9480
:10066000FF08882359F00EC0FE0184918093F100A9
:10067000219701501109FFEFCF1ADF0A011511056B
:10068000C1F601C0B82E8B2DDF91CF911F910F9134
:10069000FF90EF90DF90CF90BF900895BF92CF92E0
:1006A000DF92EF92FF920F931F93CF93DF937C0122
:1006B0008B01EA010E94FF08B82E811136C02097F5
:1006C00031F028813981021B130BE20EF31EC12C7D
:1006D000D12C26C08091E80085FD15C08091E800EE
:1006E0008E778093E800209749F0888199818C0D5E
:1006F0009D1D99838883E5E0BE2E17C00E94FF08E8
:10070000882371F011C0C7010E946C178093F1001B
:100710008FEFE81AF80A015011098FEFC81AD80AAA
:1007200001151105B9F601C0B82E8B2DDF91CF91BF
:100730001F910F91FF90EF90DF90CF90BF900895A1
:10074000BF92CF92DF92EF92FF920F931F93CF93BE
:10075000DF936C018B017A010E94FF08B82E811192
:100760003CC0E8012197CC0DDD1DE114F10439F006
:10077000F70120813181021B130BC21BD30BC12C4B
:10078000D12C26C08091E80085FD17C08091E8003B
:100790008E778093E800E114F10451F0F701808135
:1007A00091818C0D9D1D91838083F5E0BF2E15C036
:1007B0000E94FF08882361F00FC0CE010E946C17D1
:1007C0008093F100219701501109FFEFCF1ADF0A42
:1007D00001151105B9F601C0B82E8B2DDF91CF910F
:1007E0001F910F91FF90EF90DF90CF90BF900895F1
:1007F000BF92CF92DF92EF92FF920F931F93CF930E
:10080000DF937C01EB018A010E94FF08B82E811161
:1008100038C00115110539F0F80120813181C21B62
:10082000D30BE20EF31EC12CD12C27C08091E8001F
:1008300085FD17C08091E8008B778093E800011553
:10084000110551F0F801808191818C0D9D1D9183DE
:100850008083A5E0BA2E15C00E94FF08882369F0A6
:100860000FC06091F100C7010E947417FFEFEF1AEB
:10087000FF0A21978FEFC81AD80A2097B9F601C04E
:10088000B82E8B2DDF91CF911F910F91FF90EF909C
:10089000DF90CF90BF900895BF92CF92DF92EF92FA
:1008A000FF920F931F93CF93DF936C018B017A011B
:1008B0000E94FF08B82E81113CC0E8012197CC0DA1
:1008C000DD1DE114F10439F0F70120813181021BB3
:1008D000130BC21BD30BC12CD12C26C08091E80076
:1008E00085FD17C08091E8008B778093E800E114C4
:1008F000F10451F0F701808191818C0D9D1D918350
:100900008083B5E0BB2E15C00E94FF08882361F0EC
:100910000FC06091F100CE010E9474172197015021
:100920001109FFEFCF1ADF0A01151105B9F601C051
:10093000B82E8B2DDF91CF911F910F91FF90EF90EB
:10094000DF90CF90BF9008954091400150914101B8
:100950004617570748F06115710539F44091E800D2
:100960004E774093E80001C0BA01FC0140E033C07B
:1009700080913901882309F442C0853009F441C0CF
:100980008091E80083FD39C08091E80082FD2FC08E
:100990008091E80080FF1FC09091F3008091F200E9
:1009A000392F20E0A901482BCA0106C0419140938C
:1009B000F1006150710901966115710519F08830D7
:1009C0009105A0F341E0089709F040E08091E8002C
:1009D0008E778093E8006115710551F64111C8CFFB
:1009E00006C080913901882351F0853051F0809103
:1009F000E80082FFF6CF80E0089581E0089582E06C
:100A0000089583E00895FB013197E80FF91F809165
:100A10004001909141018617970748F061157105D3
:100A200039F48091E8008E778093E80001C0BC0122
:100A300040E034C080913901882309F443C08530F7
:100A400009F442C08091E80083FD3AC08091E8003B
:100A500082FD30C08091E80080FF20C09091F300BB
:100A60008091F200392F20E0A901482BCA0107C06C
:100A700040814093F10031976150710901966115F1
:100A8000710519F08830910598F341E0089709F055
:100A900040E08091E8008E778093E8006115710551
:100AA00049F64111C7CF06C080913901882351F022
:100AB000853051F08091E80082FFF6CF80E0089504
:100AC00081E0089582E0089583E00895611571053D
:100AD00029F44091E8004B774093E800AC0128C02E
:100AE000809139018823B9F1853079F18091E8004E
:100AF00083FD2DC08091E80082FFF2CFFA0107C08C
:100B00008091F1008193AF016150710961F0AF01F3
:100B10009091F3008091F200392F20E0D901A82BA9
:100B2000CD01892B69F78091E8008B778093E800ED
:100B300061157105A9F68091E80080FD0AC08091D9
:100B40003901882341F08530B1F783E0089581E0D1
:100B5000089580E0089582E00895FB013197E80F41
:100B6000F91F6115710539F521C08091390188237C
:100B7000A9F1853069F18091E80083FD2BC0809157
:100B8000E80082FFF2CF07C08091F10080833197A7
:100B90006150710959F09091F3008091F200392F62
:100BA00020E0A901482BCA01892B71F78091E80048
:100BB0008B778093E80061157105B9F68091E800A4
:100BC00080FD0AC080913901882341F08530B1F75A
:100BD00083E0089581E0089580E0089582E008951B
:100BE00040914001509141014617570748F0611567
:100BF000710539F44091E8004E774093E80001C058
:100C0000BA01FC0140E034C080913901882309F425
:100C100043C0853009F442C08091E80083FD3AC0AA
:100C20008091E80082FD30C08091E80080FF20C004
:100C30009091F3008091F200392F20E0A901482B18
:100C4000CA0107C044914093F10031966150710987
:100C500001966115710519F08830910598F341E00E
:100C6000089709F040E08091E8008E778093E800D3
:100C70006115710549F64111C7CF06C08091390150
:100C8000882351F0853051F08091E80082FFF6CF43
:100C900080E0089581E0089582E0089583E008955A
:100CA000FB013197E80FF91F8091400190914101BC
:100CB0008617970748F06115710539F48091E800AF
:100CC0008E778093E80001C0BC0140E034C0809181
:100CD0003901882309F443C0853009F442C080916A
:100CE000E80083FD3AC08091E80082FD30C0809129
:100CF000E80080FF20C09091F3008091F200392F2E
:100D000020E0A901482BCA0107C044914093F1009B
:100D100031976150710901966115710519F088309C
:100D2000910598F341E0089709F040E08091E800D0
:100D30008E778093E8006115710549F64111C7CFA0
:100D400006C080913901882351F0853051F080919F
:100D5000E80082FFF6CF80E0089581E0089582E008
:100D6000089583E00895CF92DF92EF92FF920F9360
:100D70001F93CF93DF93EB0120914001309141010C
:100D80002617370740F0209739F42091E8002E7796
:100D90002093E80001C0E9019C0180E03EC09091F1
:100DA0003901992309F44DC0953009F44CC0909154
:100DB000E80093FD44C09091E80092FD3AC0909104
:100DC000E80090FF2AC09091F3008091F200F92E84
:100DD000E12C8701082B6901C01AD10A08C0CA0199
:100DE0000E946C178093F10021970F5F1F4FA6019F
:100DF000400F511F742F652F209719F008301105EF
:100E000070F381E00830110509F080E09091E8006E
:100E10009E779093E800272F362F209709F0BFCFB9
:100E20008111BDCF06C080913901882351F08530F2
:100E300051F08091E80082FFF6CF80E005C081E0AC
:100E400003C082E001C083E0DF91CF911F910F9139
:100E5000FF90EF90DF90CF900895CF92DF92EF92C6
:100E6000FF920F931F93CF93DF939B012150310982
:100E7000280F391F809140019091410186179707F3
:100E800048F06115710539F48091E8008E77809300
:100E9000E80001C0BC0180E040C090913901992375
:100EA00009F450C0953009F44FC09091E80093FDCB
:100EB00047C09091E80092FD3DC09091E80090FFFE
:100EC0002CC09091F3008091F200F92EE12C870163
:100ED000082BEB016901C61AD70A08C0CA010E9493
:100EE0006C178093F10021970F5F1F4FA6014C0FE5
:100EF0005D1F742F652F209719F00830110570F3CE
:100F000081E00830110509F080E09091E8009E77BB
:100F10009093E800272F362FBE016115710509F067
:100F2000BCCF8111BACF06C080913901882351F01E
:100F3000853051F08091E80082FFF6CF80E005C057
:100F400081E003C082E001C083E0DF91CF911F9177
:100F50000F91FF90EF90DF90CF900895EF92FF9266
:100F60000F931F93CF93DF938B016115710529F4C4
:100F70002091E8002B772093E800EC0128C08091B5
:100F800039018823B9F1853079F18091E80083FD3A
:100F90002DC08091E80082FFF2CF09C06091F1007E
:100FA000CE010E94741721960150110959F09091B9
:100FB000F3008091F200F92EE12C9701282BC90152
:100FC000892B61F78091E8008B778093E800011509
:100FD0001105A9F68091E80080FD0AC080913901D1
:100FE000882341F08530B1F783E005C081E003C07C
:100FF00080E001C082E0DF91CF911F910F91FF90BF
:10100000EF900895EF92FF920F931F93CF93DF938A
:10101000EB018B0101501109080F191F209749F5A9
:1010200023C0809139018823B1F1853071F180911D
:10103000E80083FD2CC08091E80082FFF2CF09C058
:101040006091F100C8010E947417015011092197A5
:1010500059F09091F3008091F200F92EE12C970164
:10106000282BC901892B61F78091E8008B77809349
:10107000E8002097B1F68091E80080FD0AC08091D9
:101080003901882341F08530B1F783E005C081E064
:1010900003C080E001C082E0DF91CF911F910F91EA
:1010A000FF90EF900895982F2CC09093E900981727
:1010B00039F07091EC002091ED005091F00003C0E8
:1010C000242F762F50E021FD02C09F5F1AC030917F
:1010D000EB003E7F3093EB003091ED003D7F30938D
:1010E000ED003091EB0031603093EB007093EC0039
:1010F0002093ED005093F0002091EE0027FDE5CF06
:1011000007C0973090F28F708093E90081E00895D6
:1011100080E008950F931F93CF93DF93062FEC0188
:1011200010E030C09881911103C01F5F25962AC03E
:101130002C81E981FA817B81892F8F70873010F0B3
:1011400080E023C0223010F056E001C052E028E0D9
:1011500030E040E003C04F5F220F331F2E173F07E0
:10116000D0F34295407F452B692F661F6627661F87
:1011700090E4799F90011124622B0E945308811101
:10118000D4CFDECF1013CECF81E0DF91CF911F916E
:101190000F9108951092F40080E08093E90010927E
:1011A000F0001092E8001092ED009091EB009E7F0D
:1011B0009093EB008F5F873081F7089580913A011B
:1011C00087FD05C08091E80080FF0EC012C08091AD
:1011D000E80082FD05C0809139018111F8CF0895A2
:1011E0008091E8008B7708C0809139018111EACFA6
:1011F00008958091E8008E778093E80008958091AB
:10120000E4009091E50047E92091EC0020FD1FC02B
:1012100023C020913901222391F0253091F02091B3
:10122000EB0025FD10C02091E4003091E500281767
:10123000390751F34150C90139F784E0089582E03C
:10124000089583E0089581E0089580E00895209155
:10125000E80020FFDECFF9CF2091E80022FFD9CFB0
:10126000F4CF0E949F090E94A709E0EEF0E0808180
:1012700081608083E8EDF0E080818F77808319BC06
:10128000A7EDB0E08C918E7F8C9380818F7E8083E0
:101290001092380108950F931F93CF93DF930E940C
:1012A0009F090E94A709C8EDD0E088818F778883C5
:1012B00088818068888388818F7D888319BC10929B
:1012C000390110923501109237011092360100EE6B
:1012D00010E0F80180818B7F808388818160888322
:1012E00042E060E080E00E945308E1EEF0E080819F
:1012F0008E7F8083E2EEF0E0808181608083808158
:1013000088608083F80180818E7F808388818061FE
:101310008883DF91CF911F910F910895E8EDF0E060
:1013200080818F7E8083E7EDF0E080818160808323
:1013300084E082BF81E0809338010C944B09E8ED92
:10134000F0E080818E7F80831092E20008951092F9
:10135000DA001092E10008951F920F920FB60F92DB
:1013600011242F933F934F935F936F937F938F93AA
:101370009F93AF93BF93EF93FF938091E10082FF20
:101380000BC08091E20082FF07C08091E1008B7F5B
:101390008093E1000E94DE0C8091DA0080FF1DC086
:1013A0008091D80080FF19C08091DA008E7F8093F1
:1013B000DA008091D90019BC80FF0BC082E089BDA2
:1013C00009B400FEFDCF81E0809339010E94DE1652
:1013D00004C0109239010E94DF168091E10080FF65
:1013E00019C08091E20080FF15C08091E2008E7FDD
:1013F0008093E2008091E20080618093E20080911E
:10140000D80080628093D80019BC85E080933901B0
:101410000E94DE0C8091E10084FF2DC08091E200EB
:1014200084FF29C019BC82E089BD09B400FEFDCF4C
:101430008091D8008F7D8093D8008091E1008F7ECD
:101440008093E1008091E2008F7E8093E2008091A2
:10145000E20081608093E20080913501811104C037
:101460008091E30087FF02C084E001C081E08093A7
:1014700039010E94DE0C8091E10083FF29C0809138
:10148000E20083FF25C08091E100877F8093E10027
:1014900082E080933901109235018091E1008E7FC6
:1014A0008093E1008091E2008E7F8093E200809142
:1014B000E20080618093E20042E060E080E00E9410
:1014C00053088091F00088608093F0000E94DE0C49
:1014D000FF91EF91BF91AF919F918F917F916F910C
:1014E0005F914F913F912F910F900FBE0F901F90E2
:1014F00018951F920F920FB60F9211242F933F93BE
:101500004F935F936F937F938F939F93AF93BF930B
:10151000CF93EF93FF938091E9008F709091EC004F
:1015200090FF02C090E801C090E0C92FC82B109234
:10153000E9008091F000877F8093F00078940E940A
:10154000750B1092E9008091F00088608093F000A4
:10155000CF70C093E900FF91EF91CF91BF91AF9110
:101560009F918F917F916F915F914F913F912F91BB
:101570000F900FBE0F901F901895CF93DF9318C058
:10158000EB01A881B981CC91D0E0F901C217D30752
:1015900008F4FE01AE0FBF1FEB01B983A8832E1B19
:1015A0003F0BFC013183208311962C91241731F0DD
:1015B000EC01288139812115310511F7DF91CF9197
:1015C0000895EF92FF920F931F93CF93DF93DC0167
:1015D0001EC0EB01E880F980E701088110E0CF012F
:1015E0000E171F0708F4C801E80EF91EEB01F98277
:1015F000E882E81BF90B1196FC93EE93F7018181C9
:10160000841751F0821303C01D921C9205C0ED9106
:10161000FC9111973097E9F6DF91CF911F910F91CF
:10162000FF90EF900895FF920F931F93CF93DF9356
:10163000EC018B01F42E422F0E94BD0A8881998112
:10164000892B51F04F2DB801CE01DF91CF911F9121
:101650000F91FF900C94BD0ADF91CF911F910F91D4
:10166000FF900895AF92BF92CF92DF92EF92FF92D8
:101670000F931F93CF93DF938C017B015A0124C0FA
:10168000F701C080D180F601808190E09E018C1727
:101690009D0708F49C01C601820F931FF7019183F7
:1016A0008083AE01421B530BF80151834083F50147
:1016B0000995823049F0813069F4F701D182C08206
:1016C000F801D183C08306C0F801C081D181209781
:1016D000B9F682E0DF91CF911F910F91FF90EF90CB
:1016E000DF90CF90BF90AF9008951F93CF93DF937B
:1016F000CDB7DEB7AC970FB6F894DEBF0FBECDBF47
:10170000EAE3F1E08091F100819321E0E234F20715
:10171000C9F70E94E4168091E80083FF37C18091E9
:101720003A0190913B01953009F488C038F491302A
:10173000B1F170F0933009F029C131C0983009F44B
:10174000F8C0993009F404C1963009F01FC19DC05A
:10175000803821F0823809F019C108C08091360123
:1017600090913701992389F082600FC080913E01EA
:1017700090913F018F7099278093E9008091EB0051
:1017800085FB882780F91092E9009091E800977F07
:101790009093E8008093F1001092F100D5C0882367
:1017A00019F0823009F0F2C08F7121F0823009F017
:1017B000EDC00BC080913C01813009F0E7C093304F
:1017C00009F080E0809337012FC080913C018111A6
:1017D0002BC080913E0190913F018F709927009717
:1017E00009F4D4C08093E9002091EB0020FF1CC0D5
:1017F00020913B01233021F48091EB00806212C0E4
:101800009091EB0090619093EB0021E030E001C0FB
:10181000220F8A95EAF72093EA001092EA0080915D
:10182000EB0088608093EB001092E9008091E80063
:10183000877F8093E8000E94DE08A8C08111A6C0BF
:1018400080913C0190913D018F779927182F9091BD
:10185000E3009078982B9093E3008091E800877FD5
:101860008093E8000E94DE088091E80080FFFCCFB2
:101870008091E30080688093E300112311F083E0FE
:1018800001C082E08093390181C08058823008F025
:101890007DC080913C0190913D018C3D23E09207F9
:1018A00079F583E08A838AE289834FB7F894DE0171
:1018B000139620E03EE051E2E32FF0E05093570012
:1018C000E49120FF03C0E295EF703F5FEF708E2F31
:1018D00090E0EA3010F0C79601C0C0968D939D93BA
:1018E0002F5F243149F74FBF8091E800877F8093B5
:1018F000E8006AE270E0CE0101960E94A40413C0E1
:10190000AE01455D5F4F60913E010E94351000972A
:10191000E9F12091E800277F2093E800BC018BA526
:101920009CA50E94F0058091E8008B778093E800E9
:101930002DC0803859F58091E800877F8093E800BA
:10194000809135018093F1008091E8008E7771CF0E
:1019500081111CC090913C019230C0F48091E8004C
:10196000877F8093E800909335010E94DE08809184
:101970003501811104C08091E30087FF02C084E03B
:1019800001C081E0809339010E94E0168091E80057
:1019900083FF0AC08091E800877F8093E8008091F0
:1019A000EB0080628093EB00AC960FB6F894DEBF3C
:1019B0000FBECDBFDF91CF911F9108950895CF93B2
:1019C000809139018823B1F08091E9008F70909166
:1019D000EC0090FF02C090E801C090E0C92FC82B36
:1019E0001092E9008091E80083FD0E94750BCF7092
:1019F000C093E900CF910895CF93DF93EC01409617
:101A0000FC018BE0DF011D928A95E9F782E08C836F
:101A1000898783E08E8761E0CE0101960E948A0863
:101A2000882371F061E0CE0106960E948A0888231F
:101A300039F061E0CE010B96DF91CF910C948A08CA
:101A400080E0DF91CF910895FC01CB012091390115
:101A50002430C9F44489558966897789452B462BFA
:101A6000472B89F021812F702093E900FC01019020
:101A70000020E9F7BF0161507109681B790B40E054
:101A800050E00C94560182E008950F931F93FC01DF
:101A9000CB01BA0120913901243091F404891589D0
:101AA00026893789012B022B032B51F021812F70BE
:101AB0002093E90040E050E01F910F910C945601F3
:101AC00082E01F910F910895CF93C62F2091390185
:101AD0002430F9F4FC014489558966897789452BBE
:101AE000462B472BB1F081818F708093E900809164
:101AF000E80085FF04C0C093F10080E00BC0809136
:101B0000E8008E778093E8000E94FF08882399F30D
:101B100001C082E0CF910895FB01682F84859585EF
:101B20000E94640D882319F02FEF3FEF02C020E0E0
:101B300030E0C901089520913901243059F5FC01A4
:101B40004489558966897789452B462B472B11F1A6
:101B500081818F708093E9003091F3002091F20031
:101B6000932F80E0822B892B11F480E008959091CF
:101B7000E8008091E8008E778093E80095FDF5CF2E
:101B80000E94FF08811107C09091E8009E77909312
:101B9000E800089582E0089520913901243091F4FD
:101BA000FC014489558966897789452B462B472B4B
:101BB00049F021812F702093E9002091E80020FD59
:101BC0000C949B0D089520913901243009F01FC019
:101BD000FC014489558966897789452B462B472B1B
:101BE000B1F086818F708093E9008091E80082FFD8
:101BF0000EC03091F3002091F200932F80E0822BF1
:101C0000892B41F48091E8008B778093E80020E0F5
:101C100030E007C09091F3008091F200392F20E06E
:101C2000282BC901089520913901243019F02FEF94
:101C30003FEF2EC0FC014489558966897789452B81
:101C4000462B472BA1F386818F708093E90080910A
:101C5000E80082FFECCF3091F3002091F200932F47
:101C600080E0822B892B21F02091F10030E002C02E
:101C70002FEF3FEF5091F3004091F200952F80E05D
:101C8000842B892B29F48091E8008B778093E800DE
:101C9000C9010895CF93DF93EC010AC08091390107
:101CA000882371F08C859D850E94CC0D0E94DF0CED
:101CB0008C859D850E94130E9C0197FDEFCF02C07D
:101CC0002EEF3FEFC901DF91CF910895FC0184858C
:101CD00095850E94130E9C0197FF02C02EEF3FEFE7
:101CE000C90108950F931F93CF93DF93CDB7DEB74C
:101CF00028970FB6F894DEBF0FBECDBF8C01809140
:101D00003901843059F5F801448955896689778904
:101D1000452B462B472B11F183858F708093E9006B
:101D200088E0E1E2F1E0DE01119601900D928A95E2
:101D3000E1F740E050E068E070E0CE0101960E94DB
:101D4000560140E050E062E070E0C80142960E9417
:101D500056018091E8008E778093E80028960FB6B0
:101D6000F894DEBF0FBECDBFDF91CF911F910F91D1
:101D70000895FB012EE0DB011D922A95E9F723E08F
:101D800023832CE83DE03187208726E63EE0338739
:101D90002287958784870895FB012EE0DB011D9241
:101DA0002A95E9F723E023832CE83DE0318720875B
:101DB0002AE43EE033872287958784870895089533
:101DC0000F931F93CF93DF93EC018091E80083FF83
:101DD000B6C0888190E020913E0130913F012817E4
:101DE000390709F0ACC080913B01813261F020F4E9
:101DF000803209F0A4C040C0823209F474C083323A
:101E000009F09DC088C080913A01813A09F097C0DD
:101E10008091E800877F8093E8008091E80080FF50
:101E2000FCCF4C895D896E897F894093F100052F35
:101E3000162F272F33270093F1008B0122273327FA
:101E40000093F100472F5527662777274093F1002D
:101E5000888D8093F100898D8093F1008A8D809325
:101E6000F1008091E8008E778093E800DF91CF91B8
:101E70001F910F910C94DE0880913A01813209F094
:101E80005EC08091E800877F8093E80005C0809164
:101E90003901882309F453C08091E80082FFF7CF0D
:101EA0003091F1002091F1009091F1008091F100CA
:101EB0003C8B2D8B9E8B8F8B8091F100888F809136
:101EC000F100898F8091F1008A8F8091E8008B77F3
:101ED0008093E8000E94DE08CE01DF91CF911F9130
:101EE0000F910C94DF0E80913A01813241F580917F
:101EF000E800877F8093E8000E94DE0880913C0123
:101F000090913D01998B888BCE01DF91CF911F91EC
:101F10000F910C94E81680913A01813281F48091FE
:101F2000E800877F8093E8000E94DE0860913C0112
:101F3000CE01DF91CF911F910F910C94DF0EDF91B5
:101F4000CF911F910F9108959091C80095FFFCCFFC
:101F50008093CE0080E090E008958091C80087FFD4
:101F600008C08091C80087FF07C02091CE0030E0F4
:101F700005C02EEF3FEF02C02FEF3FEFC9010895DC
:101F80008091C80087FFFCCF8091C80087FF04C004
:101F90002091CE0030E002C02FEF3FEFC90108953D
:101FA00007C03091C80035FFFCCF2093CE000196CA
:101FB000FC0124912111F5CF0895FC0106C09091F8
:101FC000C80095FFFCCF8093CE0081918111F7CF9F
:101FD0000895680F791F09C0FC012191CF0130914C
:101FE000C80035FFFCCF2093CE0086179707A1F7D6
:101FF0000895FC01009759F482E491E090936904FC
:102000008093680490936B0480936A04FC018EE0D3
:10201000DF011D928A95E9F783E0838384EA9FE0DC
:10202000918780878DEA9FE0938782870895FC01DE
:10203000009759F482E491E09093690480936804D6
:1020400090936B0480936A04FC018EE0DF011D9283
:102050008A95E9F783E0838384EA9FE0918780870C
:1020600080EC9FE0938782870895292F33272230C1
:10207000310539F02330310549F02130310521F1A6
:1020800028C0EEE3F0E088ED90E027C0992781308A
:10209000910561F08230910581F0892BD1F4E4ED56
:1020A000F0E0E491F0E084ED90E017C0EEEBF0E0BA
:1020B000E491F0E08EEB90E010C0ECEAF0E0E49107
:1020C000F0E08CEA90E009C0E2E1F0E086E191E026
:1020D00004C0E0E0F0E080E090E0DA018D939C93B2
:1020E000CF01089584B1897F84B985B1867F85B990
:1020F0001CBC1DBC089584B1866084B923982B9ABA
:102100008DB581608DBD80E58CBD0895599885E0C1
:102110008EBD0DB407FEFDCF1EBC0DB407FEFDCF76
:102120000EB400FCF9CF599A08950E947B1059987B
:1021300086E08EBD0DB407FEFDCF599A599881E017
:102140008EBD0DB407FEFDCF1EBC0DB407FEFDCF46
:10215000599A599886E08EBD0DB407FEFDCF599A65
:10216000599880E68EBD0DB407FEFDCF599A0E94A6
:1021700086100C9472100F931F93CF93DF9300D0AF
:1021800000D01F92CDB7DEB74D8369837A838B83EE
:102190009C830E947B100E948610599826E02EBDD9
:1021A0009C818B817A8169814D810DB407FEFDCFC1
:1021B000599A599822E02EBD0DB407FEFDCF8C012F
:1021C000222733270EBD0DB407FEFDCF072F182F92
:1021D000292F33270EBD0DB407FEFDCF6EBD0DB404
:1021E00007FEFDCF4EBD0DB407FEFDCF599A0F90EF
:1021F0000F900F900F900F90DF91CF911F910F9143
:102200000C947210599882E08A95F1F700C01B9BDC
:10221000FECF599A08958F929F92BF92CF92DF92EC
:10222000EF92FF920F931F93CF93DF9300D000D0D4
:10223000CDB7DEB74A01790122E0E216F10430F4AD
:10224000EA94EF2809F0A0C0FA018CC069837A8370
:102250008B839C830E947B100E948610599820E7F4
:102260002EBD9C818B817A8169810DB407FEFDCFE3
:10227000599A599826E02EBD0DB407FEFDCF599A04
:1022800059982DEA2EBD0DB407FEFDCF8C012227F3
:1022900033270EBD0DB407FEFDCF072F182F292FB2
:1022A00033270EBD0DB407FEFDCF6EBD0DB407FE86
:1022B000FDCFF40120812EBD0DB407FEFDCFF4014A
:1022C00021812EBD0DB407FEFDCF599A69837A8313
:1022D0008B839C830E94021102E010E06701F2E010
:1022E000CF1AD1084DEAB42E69817A818B819C8105
:1022F0001EC0BEBC0DB407FEFDCFF401E00FF11F00
:1023000020812EBD0DB407FEFDCF21812EBD0DB461
:1023100007FEFDCF599A69837A838B839C830E9441
:1023200002110E5F1F4F9C818B817A8169815998C0
:10233000C016D106F0F624E02EBD0DB407FEFDCF89
:10234000599A599820E82EBD0DB407FEFDCF599A31
:102350000E151F05C8F4F401E00FF11F600F711F87
:10236000811D911D40810F900F900F900F90DF9174
:10237000CF911F910F91FF90EF90DF90CF90BF9082
:102380009F908F900C94BB100F900F900F900F9018
:10239000DF91CF911F910F91FF90EF90DF90CF9041
:1023A000BF909F908F900895CF92DF92EF92FF920F
:1023B0000F931F93CF93DF9300D000D0CDB7DEB73C
:1023C0006C01790149835A836B837C830E947B1063
:1023D000599883E08EBD7C816B815A8149810DB40F
:1023E00007FEFDCF8B01222733270EBD0DB407FE5C
:1023F000FDCF052F162F272F33270EBD0DB407FE57
:10240000FDCF4EBD0DB407FEFDCF40E050E00BC048
:10241000F601E40FF51F1EBC0DB407FEFDCF8EB50F
:1024200080834F5F5F4F4E155F0591F7599A0F906C
:102430000F900F900F90DF91CF911F910F91FF9010
:10244000EF90DF90CF900C947210FC01A081B181CD
:102450006C9380819181019691838083268137815D
:102460008217930721F484819581918380832FB70C
:10247000F894828593850196938782872FBF08956C
:1024800010927A00922F977030E4439FA00111249C
:10249000942B90937C00283030F090E8699FB00135
:1024A0001124606203C067956627679560937B007F
:1024B00020930001886E80937A00089523B12295BD
:1024C0002F7080910101281709F469C02093010140
:1024D000223020F0822F8450863038F440911E0143
:1024E00060911F018091200158C010927A0057C05E
:1024F000E0915203F09153034191F0935303E09321
:1025000052038091560390915703E817F90741F45D
:102510002091540330915503309353032093520379
:10252000E0915203F09153032191F0935303E09310
:102530005203E817F90741F4809154039091550331
:1025400090935303809352033FB7F89480915A03BA
:1025500090915B03029790935B0380935A033FBF74
:1025600028984EBD0DB407FEFDCF8EB52EBD0DB41F
:1025700007FEFDCF4EB5289A8A3A89F4842F8770DA
:102580008093200143FB662760F960931F01429509
:10259000437040931E01209101010E9440122FB709
:1025A000F89480915A0390915B032FBF892B09F017
:1025B0009FCF08950F931F93CF93DF9380910401D2
:1025C0008F708093E9008091E80085FF6DC08FB720
:1025D000F894C0916604D09167048FBF209709F4E6
:1025E00052C060915E0470915F048B010C0F1D1F3F
:1025F000809162049091630480179107D8F0AE0136
:1026000083E091E00E94450D80915E0490915F040B
:102610008C0F9D1F90935F0480935E042091620451
:10262000309163048217930709F5809160049091BB
:10263000610418C0081B190BAE01401B510B83E04D
:1026400091E00E94450D6091600470916104A801C1
:1026500083E091E00E94450D8091600490916104B7
:10266000800F911F90935F0480935E042FB7F894BE
:1026700080916604909167048C1B9D0B9093670476
:10268000809366042FBF2FB7F894809166049091D1
:1026900067042FBF0A9740F45D9806C09091C80068
:1026A00095FFFCCF8093CE0083E091E00E94130E53
:1026B00097FFF4CFDF91CF911F910F91089514BC34
:1026C00085E085BD089584B7877F84BF88E10FB614
:1026D000F89480936000109260000FBE90E080E854
:1026E0000FB6F89480936100909361000FBE519AE9
:1026F000599A509A3F9A83EF80937E0083E08093AB
:102700007D000E945F130C948E0910927A00109243
:10271000C90084B1897F84B985B1867F85B91CBC25
:102720001DBC5898479855985D9A089583E091E0AC
:102730000E949B0DECE5F4E02FB7F8948CE593E054
:102740009183808393838283958384838CE594E053
:102750009783868380E091E0918780871386128635
:102760002FBFE0E5F3E02FB7F89480E591E0918387
:102770008083938382839583848380E593E097832A
:10278000868380E092E091878087138612862FBF30
:102790008FE08093010184B18F7084B985B18F700F
:1027A00085B9599A209A289A84B1866084B9239869
:1027B0002B9A8DB581608DBD80E58CBD81E090E068
:1027C0009093CD008093CC0086E08093CA0082E095
:1027D0008093C80088E98093C900539A52985A9A06
:1027E000559A5D98589A08955D9A589847988FEF32
:1027F00084B90895589847988FEC97E00197F1F7BE
:1028000000C00000479A4D9BFECF089585B9589AA5
:10281000589808958FEF85B98AE090E0589A5898B3
:102820000197E1F708958F929F92AF92BF92CF9256
:10283000DF92EF92FF920F931F93CF93DF930E944B
:10284000F4130E94FA1325E030E040E050E0BA01B2
:102850008CE593E00E94D41180915C038A3A09F0E0
:102860005FC080915E03C0905F03D12CE12CF12CFE
:102870007601DD24CC24D82A80915D03C82A80917A
:102880006003F82A45E050E060E070E01FEF12C0FE
:1028900020E031E08CE593E00E94D41114B9CCE53E
:1028A000D3E089910E940614B501A40184E0CC35DF
:1028B000D807B9F7812C912C54019394840E951E5E
:1028C000A61EB71E8C149D04AE04BF0408F34C155D
:1028D0005D056E057F0570F0DF91CF911F910F911F
:1028E000FF90EF90DF90CF90BF90AF909F908F9030
:1028F0000C940A148BEFC80E2C2D30E08CE593E07D
:102900000E94D4118FEF84B90CE513E0E80103C0F5
:1029100089910E9406148C2F801B8C15C8F3DCCF84
:10292000DF91CF911F910F91FF90EF90DF90CF90AB
:10293000BF90AF909F908F9008958F929F92AF928B
:10294000BF92CF92DF92EF92FF920F931F93CF939C
:10295000DF93C0910201C23071F0C33009F411C29B
:10296000C13009F01EC20E94851382E080930201EB
:1029700010922A0116C283E091E00E94130E082FE4
:1029800097FD0FC220912A01223009F4A7C030F42C
:10299000222369F0213009F004C247C0243009F431
:1029A00086C108F456C1253009F0FBC1CEC1109292
:1029B0002B0110922C0110922D0110922E011092D9
:1029C0002F011092300110923101109232018634A1
:1029D00031F4109233011092340181E007C0863542
:1029E000C1F41092330181E08093340180932A0175
:1029F00062E583E091E0DF91CF911F910F91FF900D
:102A0000EF90DF90CF90BF90AF909F908F900C94FD
:102A1000640D823521F481E080933301E7CF853462
:102A200009F0BFC10E94951040C1C0902B01D09009
:102A30002C01E0902D01F0902E01482F50E060E035
:102A400070E0C601E3E0880F991FEA95E1F704C042
:102A5000440F551F661F771F8A95D2F780912F016B
:102A600090913001A0913101B0913201842B952BCE
:102A7000A62BB72B80932F0190933001A0933101A7
:102A8000B0933201D701C6010196A11DB11D8093FB
:102A90002B0190932C01A0932D01B0932E0104974C
:102AA000A105B10508F47DC110922B0110922C01F3
:102AB00010922D0110922E0180913301882341F054
:102AC00083E080932A010E94F4130E94FA1304C049
:102AD000C0932A010E9495106FE48BCFC0902B0108
:102AE000D0902C01E0902D01F0902E01CD28CE2821
:102AF000CF2839F4482F65E070E080E090E00E9434
:102B0000BB1080912B0190912C01A0912D01B091CF
:102B10002E01182F1150C12CD12C7601C394C80E50
:102B2000D91EEA1EFB1EC0922B01D0922C01E0920E
:102B30002D01F0922E01C12FD0E0FE01E45AFC4F8E
:102B400000831F3F81F4CD28CE28CF2861F0BC013F
:102B5000CD016A5F71098109910920E031E04CE5FE
:102B600053E00E940B1180912B0190912C01A091B8
:102B70002D01B0912E01C0902F01D0903001E09036
:102B80003101F09032018C159D05AE05BF0509F0AD
:102B900008C11F3FB1F09E012F5F3F4FBC01CD0127
:102BA0006B5F7F4F8F4F9F4F6901EE24D7FCE094FE
:102BB000FE2C6C197D098E099F094CE553E00E949B
:102BC0000B1185E88A95F1F7000080902B01909019
:102BD0002C01A0902D01B0902E0185E0880E911C53
:102BE000A11CB11CC12CD12C7601C394C0E0D0E053
:102BF000B501A4010C2E04C07695679557954795AD
:102C00000A94D2F7C701B6010E94BB1085E88A95E5
:102C1000F1F7000028968FEFC81AD80AE80AF80AD8
:102C2000C032D10529F785E88A95F1F700004AEA14
:102C300060E070E0CB010E94BB1064E483E091E0AF
:102C40000E94640D80913401882309F47AC084E0E5
:102C500079C00E94061480912B0190912C01A091C3
:102C60002D01B0912E010196A11DB11D80932B0164
:102C700090932C01A0932D01B0932E0140912F0130
:102C800050913001609131017091320184179507A4
:102C9000A607B70709F085C00E940A1410922A01FE
:102CA00083E0809302010E94961364E4A2CE8335F0
:102CB00009F077C080912B0190912C01A0912D01FA
:102CC000B0912E010596A11DB11D80932B0190930B
:102CD0002C01A0932D01B0932E0140E050E0BA01E9
:102CE00023C0C12CD12C7601D394C40ED51EE61E70
:102CF000F71E8C159D05AE05BF0530F496013A957B
:102D0000EC01C21BD30B02C0C0E0D1E09E018CE5F8
:102D100093E00E94D411AE016CE573E083E091E092
:102D20000E94450DB701A60180912B0190912C01C5
:102D3000A0912D01B0912E01481759076A077B0712
:102D400080F285E080932A012CC08C3451F50E94DA
:102D5000131464E483E091E00E94640D10922A0150
:102D600083E080930201DF91CF911F910F91FF903B
:102D7000EF90DF90CF90BF90AF909F908F900C948A
:102D800096130E94DA12DF91CF911F910F91FF905D
:102D9000EF90DF90CF90BF90AF909F908F900C946A
:102DA0005E12DF91CF911F910F91FF90EF90DF9016
:102DB000CF90BF90AF909F908F9008950895089501
:102DC00083E091E00C94FC0C83E091E00C94E00E25
:102DD000FC01208920FF06C0A89906C081E08093ED
:102DE0000201089516BCA89A08951F920F920FB67B
:102DF0000F9211242F933F934F935F936F937F9381
:102E00008F939F93AF93BF93EF93FF936091CE0007
:102E10008CE594E00E9425128091660490916704ED
:102E20008536910510F05D9A01C05D98FF91EF9194
:102E3000BF91AF919F918F917F916F915F914F91D2
:102E40003F912F910F900FBE0F901F9018951F92DA
:102E50000F920FB60F9211242F933F934F935F93CE
:102E60006F937F938F939F93AF93BF93EF93FF9352
:102E70006091780080E593E00E9425128091000126
:102E80006091790020E1829FC0011124682B80E5C8
:102E900093E00E942512FF91EF91BF91AF919F9116
:102EA0008F917F916F915F914F913F912F910F90F3
:102EB0000FBE0F901F9018950E94631378940E9484
:102EC00013140E9496130E949D1483E091E00E94C7
:102ED000CC0D0E94DF0CF7CFF999FECF92BD81BDDA
:102EE000F89A992780B50895262FF999FECF92BDBB
:102EF00081BDF89A019700B4021639F01FBA20BDBF
:102F00000FB6F894FA9AF99A0FBE0895F894FFCF85
:102F10000F0F03008310000001041000000182085D
:102F2000000001000000000000000000000001019E
:0A2F300005A12000000000020000CF
:00000001FF
